:020000040800F2
:1000000000A00020F504000869040008710400083D
:1000100000000000000000000000000000000000E0
:10002000000000000000000000000000790400084B
:100030000000000000000000830400088D04000898
:100040004505000845050008450500084505000868
:100050004505000845050008450500084505000858
:100060004505000845050008450500084505000848
:100070004505000845050008450500084505000838
:100080004505000845050008450500084505000828
:100090004505000845050008450500084505000818
:1000A0004505000845050008450500084505000808
:1000B00045050008450500084505000845050008F8
:1000C00010B5064C2378002B07D1054B002B02D02E
:1000D000044800E000BF0123237010BD1000002081
:1000E0000000000034190008044B10B5002B03D0A9
:1000F0000349044800E000BF10BDC04600000000F6
:100100001400002034190008002243088B4274D3E5
:1001100003098B425FD3030A8B4244D3030B8B4208
:1001200028D3030C8B420DD3FF22090212BA030C11
:100130008B4202D31212090265D0030B8B4219D3F2
:1001400000E0090AC30B8B4201D3CB03C01A524112
:10015000830B8B4201D38B03C01A5241430B8B425A
:1001600001D34B03C01A5241030B8B4201D30B0343
:10017000C01A5241C30A8B4201D3CB02C01A52416A
:10018000830A8B4201D38B02C01A5241430A8B422D
:1001900001D34B02C01A5241030A8B4201D30B0216
:1001A000C01A5241CDD2C3098B4201D3CB01C01A30
:1001B000524183098B4201D38B01C01A524143093A
:1001C0008B4201D34B01C01A524103098B4201D328
:1001D0000B01C01A5241C3088B4201D3CB00C01A95
:1001E000524183088B4201D38B00C01A524143080D
:1001F0008B4201D34B00C01A5241411A00D2014632
:10020000524110467047FFE701B5002000F006F8A4
:1002100002BDC0460029F7D076E770477047C04658
:1002200080B500AF00F0CEF900F012F800F056F8FB
:10023000002000F089F9A023DB052021180000F040
:10024000A8FCFA23DB00180000F03AFAC046F2E7F7
:1002500090B599B000AF14243B1918004C231A0034
:10026000002101F03BFB3B1D180010231A00002168
:1002700001F034FB8023DB00180000F0A5FC3B19E3
:1002800002221A603B1980225200DA603B19402298
:100290001A613B190022DA623B19180000F000FDD8
:1002A000031E01D000F0B6F83B1D07221A603B1D6B
:1002B00001225A603B1D00229A603B1D0022DA6039
:1002C0003B1D0121180001F015F9031E01D000F0BB
:1002D000A1F8C046BD4619B090BD000090B58BB0E6
:1002E00000AF14243B19180014231A00002101F058
:1002F000F5FA454BDA6C444B04210A43DA64424B6D
:10030000DB6C042213403B613B693F4BDA6C3E4B94
:1003100020210A43DA643C4BDB6C20221340FB6053
:10032000FB68394BDA6C384B01210A43DA64364BEF
:10033000DB6C01221340BB60BB68334BDA6C324B81
:1003400002210A43DA64304BDB6C022213407B60EB
:100350007B68A023DB0500222021180000F0FCFBB5
:100360003B19802292011A603B1900225A603B1906
:1003700000229A603B19254A1900100000F078FA13
:100380003B190C221A603B1902225A603B190022C9
:100390009A603B190022DA603B1907221A613A1968
:1003A000A023DB051100180000F062FA3B1920229F
:1003B0001A603B1901225A603B1900229A603B19CE
:1003C0000022DA603A19A023DB051100180000F0C2
:1003D0004FFA21007B18C02292001A607B1812226B
:1003E0005A607B1800229A607B180022DA607B1822
:1003F00004221A617B18064A1900100000F038FA2E
:10040000C046BD460BB090BD001002400008005031
:100410000004005080B500AF72B6C046C046FDE78C
:1004200080B582B000AF0F4B9A6D0E4B802149050D
:100430000A439A650B4B9A6D80235B0513407B60E2
:100440007B68084B1A6E074B01210A431A66054B5D
:100450001B6E012213403B603B68C046BD4602B0A4
:1004600080BDC0460010024080B500AFC046FDE729
:1004700080B500AFC046FDE780B500AFC046BD46C1
:1004800080BD80B500AFC046BD4680BD80B500AF21
:1004900000F0FAF8C046BD4680BD000080B582B0CD
:1004A00000AF124B802212059A60114A8023D35864
:1004B0007B600F4B1B6A3B607A6880235B021340B2
:1004C00010D03B68FF221340CC2B0BD03B68FF229F
:1004D0001340AA2B06D0064B1A68054B8021C9028F
:1004E0000A431A60C046BD4602B080BD00ED00E080
:1004F000002002400D488546FFF7D0FF0C480D490B
:100500000D4A002302E0D458C4500433C4188C426E
:10051000F9D30A4A0A4C002301E013600432A242D4
:10052000FBD301F0E3F9FFF77BFEFEE700A000201C
:100530000000002010000020941900081000002086
:1005400030000020FEE7000080B58AB000AF020056
:10055000FB1D1A7000237B62FB1D1B78002B03D050
:1005600002235B427B6223E0144BDA6C134B0121C4
:100570000A43DA64114BDB6C01221340FB60FB6819
:1005800020231A0010217B181A607B1801225A6060
:100590007B1800229A607B180322DA60FB1D1A7810
:1005A000074B9200D3587A181100180000F060F938
:1005B0007B6A1800BD460AB080BDC04600100240EC
:1005C0000400002080B582B000AFFB1D00221A702D
:1005D000032000F00FF8031E03D0FB1D01221A7048
:1005E00001E0FFF71DFFFB1D1B781800BD4602B0A0
:1005F00080BD000090B585B000AF78600F23FB1878
:1006000000221A701D4B1B78002B2BD01C4B1C6832
:100610001A4B1B781900FA239800FFF775FD0300A9
:1006200019002000FFF770FD0300180000F013F917
:10063000031E12D17B68032B0AD8796801235B4221
:100640000022180000F0F2F80E4B7A681A600DE0F4
:100650000F23FB1801221A7008E00F23FB18012258
:100660001A7003E00F23FB1801221A700F23FB18E6
:100670001B781800BD4605B090BDC0460C00002098
:10068000000000200800002080B500AF054B1B785B
:100690001A00054B1B68D218034B1A60C046BD46B2
:1006A00080BDC0460C0000202C00002080B500AFAB
:1006B000024B1B681800BD4680BDC0462C000020C0
:1006C00080B584B000AF7860FFF7F0FF0300BB6037
:1006D0007B68FB60FB68013305D00A4B1B781A006E
:1006E000FB689B18FB60C046FFF7E0FF0200BB6899
:1006F000D31AFA689A42F7D8C046C046BD4604B03D
:1007000080BDC0460C00002090B583B000AF020051
:100710003960FB1D1A70FB1D1B787F2B28D82F4AD0
:10072000FB1D1B785BB29B08C0339B009B58FA1DD6
:100730001278110003220A40D200FF2191400A00E2
:10074000D2431A4011003B689B01FF221A40FB1D57
:100750001B78180003230340DB009A401F48FB1D51
:100760001B785BB29B080A43C0339B001A5031E0F0
:100770001B4AFB1D1B7819000F230B40083B9B08ED
:1007800006339B00D31804331B68FA1D127811003E
:1007900003220A40D200FF2191400A00D2431A40AE
:1007A00011003B689B01FF221A40FB1D1B781800BB
:1007B00003230340DB009A400948FB1D1B781C0003
:1007C0000F232340083B9B080A4306339B00C318B2
:1007D00004331A60C046BD4603B090BD00E100E09E
:1007E00000ED00E080B582B000AF78607B685A1EF3
:1007F00080235B049A4201D3012310E00A4B7A68FC
:10080000013A5A6001235B4203211800FFF77CFF85
:10081000054B00229A60044B07221A60002318003F
:10082000BD4602B080BDC04610E000E080B584B097
:1008300000AFB9607A600F217B18021C1A70BA6889
:100840007B181B785BB211001800FFF75DFFC046F4
:10085000BD4604B080BD80B582B000AF78607B68D3
:100860001800FFF7BFFF03001800BD4602B080BDAF
:1008700080B586B000AF7860396000237B6153E1BA
:100880003B681B6801217A6991400A001340FB60B4
:10089000FB68002B00D144E13B685B6803221340F6
:1008A000012B05D03B685B6803221340022B30D13B
:1008B0007B689B683B617B695B0003229A40130065
:1008C000DA433B6913403B613B68DA687B695B0054
:1008D0009A4013003A6913433B617B683A699A6016
:1008E0007B685B683B6101227B699A401300DA43B5
:1008F0003B6913403B613B685B681B0901221A405E
:100900007B699A4013003A6913433B617B683A69FB
:100910005A603B685B6803221340032B17D07B6847
:10092000DB683B617B695B0003229A401300DA437A
:100930003B6913403B613B689A687B695B009A4066
:1009400013003A6913433B617B683A69DA603B689C
:100950005B6803221340022B23D17B69DA087B6892
:1009600008329200D3583B617B69072213409B00F9
:100970000F229A401300DA433B6913403B613B6806
:100980001A697B6907210B409B009A4013003A6962
:1009900013433B617B69DA087B680832920039694E
:1009A000D1507B681B683B617B695B0003229A40E6
:1009B0001300DA433B6913403B613B685B680322E9
:1009C0001A407B695B009A4013003A6913433B610C
:1009D0007B683A691A603B685A68C0239B021340DF
:1009E00000D19EE0564A7B699B0818339B009B58B8
:1009F0003B617B6903221340DB000F229A40130006
:100A0000DA433B6913403B617A68A023DB059A42D5
:100A10001FD07B684B4A934219D07B684A4A934265
:100A200013D07B68494A93420DD07B68484A934271
:100A300007D07B68474A934201D105230AE0062389
:100A400008E0042306E0032304E0022302E001237C
:100A500000E000237A6903210A40D20093403A69FA
:100A600013433B6136497B699B0818339B003A6905
:100A70005A50334B1B683B61FB68DA433B691340B8
:100A80003B613B685A6880235B03134003D03A699B
:100A9000FB6813433B612A4B3A691A60284B5B6839
:100AA0003B61FB68DA433B6913403B613B685A6832
:100AB00080239B03134003D03A69FB6813433B61D7
:100AC0001F4B3A695A601E4A8423D3583B61FB6826
:100AD000DA433B6913403B613B685A6880239B02C1
:100AE000134003D03A69FB6813433B6114498422E5
:100AF0003B698B50124A8023D3583B61FB68DA4331
:100B00003B6913403B613B685A6880235B0213409A
:100B100003D03A69FB6813433B61094980223B6972
:100B20008B507B6901337B613B681A687B69DA40D3
:100B3000131E00D0A4E6C046C046BD4606B080BD28
:100B4000001802400004005000080050000C005043
:100B5000001000500014005080B582B000AF7860E3
:100B600008001100BB1C021C1A807B1C0A1C1A7096
:100B70007B1C1B78002B04D0BB1C1A887B689A61F5
:100B800003E0BB1C1A887B689A62C046BD4602B06F
:100B900080BD80B584B000AF78600A00BB1C1A80AD
:100BA0007B685B69FB60BB1C1B88FA6813401A04F6
:100BB000FB68DB43B91C09880B401A437B689A61C8
:100BC000C046BD4604B080BD80B584B000AF78603B
:100BD0007A6880239B009A4237D1274B1A68C0233A
:100BE000DB001A4080239B009A4240D0224B1B68B6
:100BF000224A1A40204B802189000A431A60204B68
:100C00001B68322253431F491800FFF77DFA030087
:100C10000133FB6002E0FB68013BFB60164B5A6945
:100C20008023DB001A408023DB009A4202D1FB685C
:100C3000002BF0D1104B5A698023DB001A4080232F
:100C4000DB009A4213D1032312E00B4B1A68C02336
:100C5000DB001A408023DB009A4208D0064B1B6859
:100C6000064A1A40044B8021C9000A431A60002337
:100C70001800BD4604B080BD00700040FFF9FFFFC2
:100C80000000002040420F0080B500AF034B1A68FF
:100C9000C023DB0013401800BD4680BD007000403B
:100CA000B0B588B000AF7860C94B9B68382213405C
:100CB000BB61C74BDB68032213407B617B681B6809
:100CC0001022134000D1EFE0BB69002B07D0BB69B5
:100CD000182B00D093E07B69012B00D08FE0BC4B38
:100CE0001B680222134006D07B68DB69002B02D10F
:100CF000012300F0F2FB7B685A6AB54B1B680821A0
:100D00000B4004D0B24B1B68F0210B4005E0B0490A
:100D10009423CB581B09F0210B40934225D27B68CA
:100D20005B6A180000F06EFD031E02D0012300F084
:100D3000D4FBA74B1A68A64B08210A431A60A44BA0
:100D40001B68F022934319007B685A6AA04B0A4340
:100D50001A609F4B5B689F4A134019007B681B6AAF
:100D60001A029B4B0A435A6027E0994B1A68984B2A
:100D700008210A431A60964B1B68F022934319001E
:100D80007B685A6A924B0A431A60914B5B68914A9E
:100D9000134019007B681B6A1A028D4B0A435A6084
:100DA000BB69002B09D17B685B6A180000F02AFD43
:100DB000031E02D0012300F090FB00F087FC01002D
:100DC000834B9B681B0A0F221340834AD35C1A0093
:100DD0001F2313400A00DA40804B1A60804B1B68C7
:100DE0000F257C191800FFF705FC030023707B1901
:100DF0001B78002B57D07B191B7800F06EFB7B68AB
:100E0000DB69002B35D0724B1A68714B01210A4304
:100E10001A60FFF74BFC03003B6109E0FFF746FC5B
:100E200002003B69D31A022B02D9032300F055FBC1
:100E3000674B1B6802221340F0D0654B1A68644B65
:100E400008210A431A60624B1B68F0229343190081
:100E50007B685A6A5E4B0A431A605D4B5B685D4A69
:100E6000134019007B681B6A1A02594B0A435A60E7
:100E70001AE0574B1A68564B01218A431A60FFF754
:100E800015FC03003B6108E0FFF710FC02003B6922
:100E9000D31A022B01D903231FE34D4B1B680222F7
:100EA0001340F1D100E0C0467B681B68012213406B
:100EB00000D165E0BB69102B05D0BB69182B0ED1A2
:100EC0007B69032B0BD1424B1A6880239B02134092
:100ED00055D07B685B68002B51D10123FDE27B6814
:100EE0005A6880235B029A4207D1394B1A68384B03
:100EF000802149020A431A6013E07B685A68A023E4
:100F0000DB029A4207D1324B1A68314BA021C90249
:100F10000A431A6005E02E4B1A682D4B31490A40EE
:100F20001A607B685B68002B14D0FFF7BFFB0300DF
:100F30003B6108E0FFF7BAFB02003B69D31A642B60
:100F400001D90323C9E2224B1A6880239B02134074
:100F5000F0D015E0FFF7AAFB03003B6108E0FFF7C4
:100F6000A5FB02003B69D31A642B01D90323B4E229
:100F7000174B1A6880239B021340F0D100E0C04653
:100F80007B681B680222134000D174E0BB69082B08
:100F900005D0BB69182B29D17B69022B26D10C4BBC
:100FA0001A688023DB00134005D07B68DB68002BC8
:100FB00001D1012391E2064B5B680B4A13401900F3
:100FC0007B681B691A06024B0A435A6053E0C0460D
:100FD00000100240FF00FFFF4C1900080000002035
:100FE00008000020FFFFFAFFFFFFFF807B68DB683F
:100FF000002B26D0C74B1A68C64B802149000A43F4
:101000001A60FFF753FB03003B6108E0FFF74EFB5C
:1010100002003B69D31A022B01D903235DE2BD4BC9
:101020001A688023DB001340F0D0BA4B5B68BA4AE1
:10103000134019007B681B691A06B64B0A435A60B5
:1010400019E0B44B1A68B34BB4490A401A60FFF771
:101050002DFB03003B6108E0FFF728FB02003B6922
:10106000D31A022B01D9032337E2AA4B1A68802333
:10107000DB001340F0D17B681B680822134051D07D
:101080007B685B69002B31D07B689B69002B08D1A2
:10109000A04A9423D3589F490422934394228B500F
:1010A00007E09C4A9423D3589A490422134394227C
:1010B0008B50984A9423D358964901221343942283
:1010C0008B50FFF7F3FA03003B6108E0FFF7EEFAFD
:1010D00002003B69D31A112B01D90323FDE18D4A8C
:1010E0009423D35802221340F0D01BE0894A942362
:1010F000D35888490122934394228B50FFF7D6FAA4
:1011000003003B6108E0FFF7D1FA02003B69D31A04
:10111000112B01D90323E0E17E4A9423D358022204
:101120001340F0D17B681B680422134000D10DE10D
:101130001F203B1800221A70764B9A6D80235B05A6
:10114000134010D1734B9A6D724B802149050A43AD
:101150009A65704B9A6D80235B051340BB60BB683A
:101160003B1801221A706E4B1A6880235B001340F3
:101170001AD16B4B1A686A4B802149000A431A60E6
:10118000FFF794FA03003B6108E0FFF78FFA0200D3
:101190003B69D31A022B01D903239EE1604B1A68E5
:1011A00080235B001340F0D07B689B6801221340D2
:1011B0001ED07B689B680422134010D0554A9023B0
:1011C000D35854490422134390228B50514A902300
:1011D000D35850490122134390228B5018E04D4AB6
:1011E0009023D3584B490122134390228B500FE098
:1011F000484A9023D35847490122934390228B5069
:10120000444A9023D35843490422934390228B505D
:101210007B689B68002B4FD0FFF748FA03003B61C7
:1012200009E0FFF743FA02003B69D31A3D4A9342B3
:1012300001D9032351E1374A9023D35802221340A6
:10124000EFD07B689B68802213401AD0314A9023EC
:10125000D35830498022134390228B5009E0FFF786
:1012600025FA02003B69D31A2E4A934201D903237F
:1012700033E1284A9023D25880231B011340EED03B
:1012800059E0244A9023D358224980229343902244
:101290008B5009E0FFF70AFA02003B69D31A214A92
:1012A000934201D9032318E11A4A9023D25880238C
:1012B0001B011340EED13EE0FFF7F8F903003B615C
:1012C00009E0FFF7F3F902003B69D31A154A93428C
:1012D00001D9032301E10F4A9023D358022213407E
:1012E000EFD10C4A9023D3588022134023D0094ACF
:1012F0009023D35807498022934390228B5013E0C8
:10130000FFF7D4F902003B69D31A064A93420BD97E
:101310000323E2E000100240FFFFFF80FFFEFFFF1B
:1013200000700040881300006E4A9023D25880233A
:101330001B011340E4D11F23FB181B78012B05D19F
:10134000684B9A6D674B68490A409A657B681B68D1
:10135000202213403CD07B689B6A002B1CD0614A42
:101360009823D3585F490122134398228B50FFF7EB
:101370009DF903003B6108E0FFF798F902003B6923
:10138000D31A022B01D90323A7E0564A9823D35836
:1013900002221340F0D01BE0524A9823D3585149FF
:1013A0000122934398228B50FFF780F903003B61A1
:1013B00008E0FFF77BF902003B69D31A022B01D941
:1013C00003238AE0474A9823D35802221340F0D1DE
:1013D0007B68DB6A002B00D17EE0424B9B683822A1
:1013E0001340182B00D175E07B68DB6A022B56D1C5
:1013F0003C4B1A683B4B3D490A401A60FFF756F9CF
:1014000003003B6108E0FFF751F902003B69D31A82
:10141000022B01D9032360E0324B1A6880239B041E
:101420001340F0D12F4BDB68314A134019007B6821
:101430001A6B7B685B6B1A437B689B6B1B021A43BE
:101440007B681B6C1A437B685B6C1A437B68DB6BA5
:101450001A43244B0A43DA60224BDA68214B80217D
:1014600049050A43DA601F4B1A681E4B8021490464
:101470000A431A60FFF71AF903003B6108E0FFF71F
:1014800015F902003B69D31A022B01D9032324E08A
:10149000144B1A6880239B041340F0D01CE0114BBE
:1014A0001A68104B11490A401A60FFF7FFF8030051
:1014B0003B6108E0FFF7FAF802003B69D31A022B00
:1014C00001D9032309E0074B1A6880239B041340CA
:1014D000F0D101E0012300E000231800BD4608B070
:1014E000B0BDC04600100240FFFFFFEFFFFFFFFE50
:1014F0008C80C111B0B584B000AF786039606C4B9E
:101500001B68072213403A689A4211D9684B1B683E
:10151000072293431900664B3A680A431A60644BEA
:101520001B68072213403A689A4201D00123BBE0AE
:101530007B681B680122134000D164E07B685B6814
:10154000032B07D15B4B1A6880239B04134038D1CF
:101550000123A9E07B685B68022B07D1554B1A6811
:1015600080239B0213402CD101239DE07B685B68A4
:10157000002B06D14F4B1B680222134021D10123BF
:1015800092E07B685B68012B07D14A4B1A68802385
:10159000DB00134015D1012386E07B685B68042BD8
:1015A00007D1444A9423D3580222134009D101237E
:1015B0007AE0404A9023D3580222134001D10123FC
:1015C00072E03C4B9B680722934319007B685A6882
:1015D000384B0A439A60FFF769F80300FB6009E0A3
:1015E000FFF764F80200FB68D31A334A934201D92B
:1015F000032359E02F4B9B6838221A407B685B68B5
:10160000DB009A42ECD17B681B680222134009D0B0
:10161000284B9B68294A134019007B689A68254B20
:101620000A439A60224B1B68072213403A689A4289
:1016300011D21F4B1B680722934319001C4B3A68B9
:101640000A431A601A4B1B68072213403A689A42F1
:1016500001D0012328E07B681B680422134009D0D5
:10166000144B9B68164A134019007B68DA68114BCB
:101670000A439A6000F02AF801000E4B9B681B0A8F
:101680000F2213400F4AD35C1A001F2313400A0095
:10169000DA400D4B1A600B257C190320FEF7AAFFD8
:1016A000030023707B191B781800BD4604B0B0BD41
:1016B000002002400010024088130000FFF0FFFFEE
:1016C000FF8FFFFF4C1900080000002080B58AB092
:1016D00000AF00237B6200233B62464B9B683822AD
:1016E0001340BB61434BDB68032213407B61BB6942
:1016F000002B05D0BB69182B25D17B69012B22D18A
:101700003C4B1B680822134007D13A4A9423D35814
:101710001B0A0F2213407B6205E0364B1B681B0936
:101720000F2213407B627B6A0B2B01D900237B6263
:10173000314B7A6A9200D3587B62BB69002B1BD174
:101740007B6A3B6218E0BB69082B02D12B4B3B62E2
:1017500012E0BB69102B02D1294B3B620CE0BB6944
:10176000202B03D1FA23DB013B6205E0BB69282B68
:1017700002D180231B023B62BB69182B35D11D4B64
:10178000DB68032213403B611A4BDB681B0907220D
:1017900013400133FB603B69022B03D03B69032BF1
:1017A00003D005E0154BFB6105E0154BFB6102E042
:1017B0007B6AFB61C0460F4BDB681B0A7F2213402C
:1017C000FA695343F9681800FEF79EFC0300BB60FA
:1017D000084BDB685B0F0722134001337B6079689D
:1017E000B868FEF791FC03003B623B6A1800BD46F7
:1017F0000AB080BD001002405C1900080024F4000B
:1018000000093D0080B586B000AF786000233B61E1
:101810002F4B9A6D80235B05134004D0FFF734FAF9
:1018200003007B6117E02A4B9A6D294B8021490503
:101830000A439A65264B9A6D80235B051340FB6033
:10184000FB68FFF721FA03007B61214B9A6D204B67
:1018500020490A409A657A6980239B009A4211D1F7
:101860007B68802B1CD97B68B02B02D902233B619B
:1018700016E07B68902B02D901233B6110E0002326
:101880003B610DE07B687F2B02D902233B6107E0BF
:101890007B68702B02D101233B6101E000233B6197
:1018A0000D4B1B680722934319000B4B3A690A43FF
:1018B0001A60094B1B68072213403A699A4201D00B
:1018C000012300E000231800BD4606B080BDC046DD
:1018D00000100240FFFFFFEF0020024003008218CB
:1018E000934200D1704719700133F9E770B50026B3
:1018F0000C4C0D4D641BA410A64209D1002600F02B
:1019000019F80A4C0A4D641BA410A64205D170BDFB
:10191000B300EB5898470136EEE7B300EB58984711
:101920000136F2E78C1900088C190008901900089C
:101930008C190008F8B5C046F8BC08BC9E46704734
:0C194000F8B5C046F8BC08BC9E467047D5
:10194C000000000000000000010203040607080963
:10195C00A0860100400D0300801A060000350C0023
:10196C0040420F0080841E0000093D0000127A00E6
:10197C000024F40000366E010048E801006CDC0223
:04198C00E900000866
:04199000C10000088A
:1019940000093D00000000500400000001000000A8
:04000005080004F5F6
:00000001FF
